{"contracts/VaultFactory.sol":{"VaultFactory":{"abi":[{"inputs":[],"stateMutability":"nonpayable","type":"constructor"},{"inputs":[],"name":"ERC1167FailedCreateClone","type":"error"},{"inputs":[{"internalType":"bytes32","name":"salt","type":"bytes32"}],"name":"VaultAlreadyDeployed","type":"error"},{"anonymous":false,"inputs":[{"indexed":true,"internalType":"address","name":"vault","type":"address"},{"indexed":true,"internalType":"bytes32","name":"salt","type":"bytes32"},{"indexed":true,"internalType":"address","name":"owner","type":"address"},{"indexed":false,"internalType":"address","name":"treasury","type":"address"},{"indexed":false,"internalType":"address","name":"feeTreasury","type":"address"}],"name":"VaultDeployed","type":"event"},{"inputs":[{"internalType":"string","name":"orderId","type":"string"},{"internalType":"address","name":"owner","type":"address"},{"internalType":"address","name":"treasury","type":"address"},{"internalType":"address","name":"feeTreasury","type":"address"}],"name":"deployVault","outputs":[{"internalType":"address","name":"vault","type":"address"}],"stateMutability":"nonpayable","type":"function"},{"inputs":[{"internalType":"string","name":"orderId","type":"string"}],"name":"getPredicted","outputs":[{"internalType":"address","name":"","type":"address"}],"stateMutability":"view","type":"function"},{"inputs":[{"internalType":"string","name":"orderId","type":"string"}],"name":"getSalt","outputs":[{"internalType":"bytes32","name":"","type":"bytes32"}],"stateMutability":"pure","type":"function"},{"inputs":[],"name":"implementation","outputs":[{"internalType":"address","name":"","type":"address"}],"stateMutability":"view","type":"function"},{"inputs":[{"internalType":"bytes32","name":"","type":"bytes32"}],"name":"vaultForSalt","outputs":[{"internalType":"address","name":"","type":"address"}],"stateMutability":"view","type":"function"}],"evm":{"bytecode":{"linkReferences":{},"object":"60a060405234801561001057600080fd5b5060405161001d9061004b565b604051809103906000f080158015610039573d6000803e3d6000fd5b506001600160a01b0316608052610058565b61069a8061059f83390190565b60805161051f6100806000396000818160a70152818161016201526102b4015261051f6000f3fe608060405234801561001057600080fd5b50600436106100575760003560e01c8063316d06f01461005c5780635c60da1b146100a2578063bd8a0ceb146100c9578063d66ee75a146100dc578063e3699226146100fd575b600080fd5b61008561006a3660046103a3565b6000602081905290815260409020546001600160a01b031681565b6040516001600160a01b0390911681526020015b60405180910390f35b6100857f000000000000000000000000000000000000000000000000000000000000000081565b6100856100d7366004610421565b610110565b6100ef6100ea366004610497565b610271565b604051908152602001610099565b61008561010b366004610497565b610286565b60008061011d8787610313565b6000818152602081905260409020549091506001600160a01b03161561015d57604051638b8537db60e01b81526004810182905260240160405180910390fd5b6101877f000000000000000000000000000000000000000000000000000000000000000082610335565b60405163c0c53b8b60e01b81526001600160a01b038781166004830152868116602483015285811660448301529193509083169063c0c53b8b90606401600060405180830381600087803b1580156101de57600080fd5b505af11580156101f2573d6000803e3d6000fd5b5050506000828152602081815260409182902080546001600160a01b0319166001600160a01b0387811691821790925583518983168152888316938101939093529089169350849290917fe529aee1db359f51cd7bbbb4479a7adb9cc27102ad0425321243c260fb5bbb09910160405180910390a45095945050505050565b600061027d8383610313565b90505b92915050565b6000806102938484610313565b6040513060388201526f5af43d82803e903d91602b57fd5bf3ff60248201527f00000000000000000000000000000000000000000000000000000000000000006014820152733d602d80600a3d3981f3363d3d373d3d3d363d73815260588101919091526037600c82012060788201526055604390910120949350505050565b600082826040516103259291906104d9565b6040518091039020905092915050565b6000763d602d80600a3d3981f3363d3d373d3d3d363d730000008360601b60e81c176000526e5af43d82803e903d91602b57fd5bf38360781b1760205281603760096000f590506001600160a01b038116610280576040516330be1a3d60e21b815260040160405180910390fd5b6000602082840312156103b557600080fd5b5035919050565b60008083601f8401126103ce57600080fd5b50813567ffffffffffffffff8111156103e657600080fd5b6020830191508360208285010111156103fe57600080fd5b9250929050565b80356001600160a01b038116811461041c57600080fd5b919050565b60008060008060006080868803121561043957600080fd5b853567ffffffffffffffff81111561045057600080fd5b61045c888289016103bc565b909650945061046f905060208701610405565b925061047d60408701610405565b915061048b60608701610405565b90509295509295909350565b600080602083850312156104aa57600080fd5b823567ffffffffffffffff8111156104c157600080fd5b6104cd858286016103bc565b90969095509350505050565b818382376000910190815291905056fea264697066735822122078ec0ec24f8416478aeff0df3c2738d0c5fed8968fd743cbfa53dc982135817464736f6c63430008180033608060405234801561001057600080fd5b5061067a806100206000396000f3fe608060405234801561001057600080fd5b50600436106100575760003560e01c806301681a621461005c57806360dc23401461007157806361d027b3146100a05780638da5cb5b146100b3578063c0c53b8b146100c6575b600080fd5b61006f61006a36600461051a565b6100d9565b005b600254610084906001600160a01b031681565b6040516001600160a01b03909116815260200160405180910390f35b600154610084906001600160a01b031681565b600054610084906001600160a01b031681565b61006f6100d4366004610535565b61023f565b6000546001600160a01b03163314610104576040516330cd747160e01b815260040160405180910390fd5b6040516370a0823160e01b815230600482015281906000906001600160a01b038316906370a0823190602401602060405180830381865afa15801561014d573d6000803e3d6000fd5b505050506040513d601f19601f820116820180604052508101906101719190610578565b90508060000361019457604051636165515360e11b815260040160405180910390fd5b600060646101a36005846105a7565b6101ad91906105be565b905060006101bb82846105e0565b6002549091506101d8906001600160a01b03868116911684610304565b6001546101f2906001600160a01b03868116911683610304565b60408051848152602081018490526001600160a01b0387169133917f8496dda4d04919fec296be83f4d7d178dafb7c0d3abe1553c092f1466e8f2928910160405180910390a35050505050565b600254600160a01b900460ff16156102695760405162dc149f60e41b815260040160405180910390fd5b6001600160a01b038316158061028657506001600160a01b038216155b8061029857506001600160a01b038116155b156102b65760405163e6c4247b60e01b815260040160405180910390fd5b600080546001600160a01b039485166001600160a01b031991821617909155600180549385169390911692909217909155600280546001600160a81b0319169190921617600160a01b179055565b604080516001600160a01b038416602482015260448082018490528251808303909101815260649091019091526020810180516001600160e01b031663a9059cbb60e01b17905261035690849061035b565b505050565b60006103706001600160a01b038416836103c3565b9050805160001415801561039557508080602001905181019061039391906105f3565b155b1561035657604051635274afe760e01b81526001600160a01b03841660048201526024015b60405180910390fd5b60606103d1838360006103da565b90505b92915050565b6060814710156103ff5760405163cd78605960e01b81523060048201526024016103ba565b600080856001600160a01b0316848660405161041b9190610615565b60006040518083038185875af1925050503d8060008114610458576040519150601f19603f3d011682016040523d82523d6000602084013e61045d565b606091505b509150915061046d868383610479565b925050505b9392505050565b60608261048e57610489826104d5565b610472565b81511580156104a557506001600160a01b0384163b155b156104ce57604051639996b31560e01b81526001600160a01b03851660048201526024016103ba565b5080610472565b8051156104e55780518082602001fd5b604051630a12f52160e11b815260040160405180910390fd5b80356001600160a01b038116811461051557600080fd5b919050565b60006020828403121561052c57600080fd5b6103d1826104fe565b60008060006060848603121561054a57600080fd5b610553846104fe565b9250610561602085016104fe565b915061056f604085016104fe565b90509250925092565b60006020828403121561058a57600080fd5b5051919050565b634e487b7160e01b600052601160045260246000fd5b80820281158282048414176103d4576103d4610591565b6000826105db57634e487b7160e01b600052601260045260246000fd5b500490565b818103818111156103d4576103d4610591565b60006020828403121561060557600080fd5b8151801515811461047257600080fd5b6000825160005b81811015610636576020818601810151858301520161061c565b50600092019182525091905056fea26469706673582212201441e7b675415a3c018fac26fc890455ef5a329dfb4fe939cdd7680b0f53f31264736f6c63430008180033","opcodes":"PUSH1 0xA0 PUSH1 0x40 MSTORE CALLVALUE DUP1 ISZERO PUSH2 0x10 JUMPI PUSH1 0x0 DUP1 REVERT JUMPDEST POP PUSH1 0x40 MLOAD PUSH2 0x1D SWAP1 PUSH2 0x4B JUMP JUMPDEST PUSH1 0x40 MLOAD DUP1 SWAP2 SUB SWAP1 PUSH1 0x0 CREATE DUP1 ISZERO DUP1 ISZERO PUSH2 0x39 JUMPI RETURNDATASIZE PUSH1 0x0 DUP1 RETURNDATACOPY RETURNDATASIZE PUSH1 0x0 REVERT JUMPDEST POP PUSH1 0x1 PUSH1 0x1 PUSH1 0xA0 SHL SUB AND PUSH1 0x80 MSTORE PUSH2 0x58 JUMP JUMPDEST PUSH2 0x69A DUP1 PUSH2 0x59F DUP4 CODECOPY ADD SWAP1 JUMP JUMPDEST PUSH1 0x80 MLOAD PUSH2 0x51F PUSH2 0x80 PUSH1 0x0 CODECOPY PUSH1 0x0 DUP2 DUP2 PUSH1 0xA7 ADD MSTORE DUP2 DUP2 PUSH2 0x162 ADD MSTORE PUSH2 0x2B4 ADD MSTORE PUSH2 0x51F PUSH1 0x0 RETURN INVALID PUSH1 0x80 PUSH1 0x40 MSTORE CALLVALUE DUP1 ISZERO PUSH2 0x10 JUMPI PUSH1 0x0 DUP1 REVERT JUMPDEST POP PUSH1 0x4 CALLDATASIZE LT PUSH2 0x57 JUMPI PUSH1 0x0 CALLDATALOAD PUSH1 0xE0 SHR DUP1 PUSH4 0x316D06F0 EQ PUSH2 0x5C JUMPI DUP1 PUSH4 0x5C60DA1B EQ PUSH2 0xA2 JUMPI DUP1 PUSH4 0xBD8A0CEB EQ PUSH2 0xC9 JUMPI DUP1 PUSH4 0xD66EE75A EQ PUSH2 0xDC JUMPI DUP1 PUSH4 0xE3699226 EQ PUSH2 0xFD JUMPI JUMPDEST PUSH1 0x0 DUP1 REVERT JUMPDEST PUSH2 0x85 PUSH2 0x6A CALLDATASIZE PUSH1 0x4 PUSH2 0x3A3 JUMP JUMPDEST PUSH1 0x0 PUSH1 0x20 DUP2 SWAP1 MSTORE SWAP1 DUP2 MSTORE PUSH1 0x40 SWAP1 KECCAK256 SLOAD PUSH1 0x1 PUSH1 0x1 PUSH1 0xA0 SHL SUB AND DUP2 JUMP JUMPDEST PUSH1 0x40 MLOAD PUSH1 0x1 PUSH1 0x1 PUSH1 0xA0 SHL SUB SWAP1 SWAP2 AND DUP2 MSTORE PUSH1 0x20 ADD JUMPDEST PUSH1 0x40 MLOAD DUP1 SWAP2 SUB SWAP1 RETURN JUMPDEST PUSH2 0x85 PUSH32 0x0 DUP2 JUMP JUMPDEST PUSH2 0x85 PUSH2 0xD7 CALLDATASIZE PUSH1 0x4 PUSH2 0x421 JUMP JUMPDEST PUSH2 0x110 JUMP JUMPDEST PUSH2 0xEF PUSH2 0xEA CALLDATASIZE PUSH1 0x4 PUSH2 0x497 JUMP JUMPDEST PUSH2 0x271 JUMP JUMPDEST PUSH1 0x40 MLOAD SWAP1 DUP2 MSTORE PUSH1 0x20 ADD PUSH2 0x99 JUMP JUMPDEST PUSH2 0x85 PUSH2 0x10B CALLDATASIZE PUSH1 0x4 PUSH2 0x497 JUMP JUMPDEST PUSH2 0x286 JUMP JUMPDEST PUSH1 0x0 DUP1 PUSH2 0x11D DUP8 DUP8 PUSH2 0x313 JUMP JUMPDEST PUSH1 0x0 DUP2 DUP2 MSTORE PUSH1 0x20 DUP2 SWAP1 MSTORE PUSH1 0x40 SWAP1 KECCAK256 SLOAD SWAP1 SWAP2 POP PUSH1 0x1 PUSH1 0x1 PUSH1 0xA0 SHL SUB AND ISZERO PUSH2 0x15D JUMPI PUSH1 0x40 MLOAD PUSH4 0x8B8537DB PUSH1 0xE0 SHL DUP2 MSTORE PUSH1 0x4 DUP2 ADD DUP3 SWAP1 MSTORE PUSH1 0x24 ADD PUSH1 0x40 MLOAD DUP1 SWAP2 SUB SWAP1 REVERT JUMPDEST PUSH2 0x187 PUSH32 0x0 DUP3 PUSH2 0x335 JUMP JUMPDEST PUSH1 0x40 MLOAD PUSH4 0xC0C53B8B PUSH1 0xE0 SHL DUP2 MSTORE PUSH1 0x1 PUSH1 0x1 PUSH1 0xA0 SHL SUB DUP8 DUP2 AND PUSH1 0x4 DUP4 ADD MSTORE DUP7 DUP2 AND PUSH1 0x24 DUP4 ADD MSTORE DUP6 DUP2 AND PUSH1 0x44 DUP4 ADD MSTORE SWAP2 SWAP4 POP SWAP1 DUP4 AND SWAP1 PUSH4 0xC0C53B8B SWAP1 PUSH1 0x64 ADD PUSH1 0x0 PUSH1 0x40 MLOAD DUP1 DUP4 SUB DUP2 PUSH1 0x0 DUP8 DUP1 EXTCODESIZE ISZERO DUP1 ISZERO PUSH2 0x1DE JUMPI PUSH1 0x0 DUP1 REVERT JUMPDEST POP GAS CALL ISZERO DUP1 ISZERO PUSH2 0x1F2 JUMPI RETURNDATASIZE PUSH1 0x0 DUP1 RETURNDATACOPY RETURNDATASIZE PUSH1 0x0 REVERT JUMPDEST POP POP POP PUSH1 0x0 DUP3 DUP2 MSTORE PUSH1 0x20 DUP2 DUP2 MSTORE PUSH1 0x40 SWAP2 DUP3 SWAP1 KECCAK256 DUP1 SLOAD PUSH1 0x1 PUSH1 0x1 PUSH1 0xA0 SHL SUB NOT AND PUSH1 0x1 PUSH1 0x1 PUSH1 0xA0 SHL SUB DUP8 DUP2 AND SWAP2 DUP3 OR SWAP1 SWAP3 SSTORE DUP4 MLOAD DUP10 DUP4 AND DUP2 MSTORE DUP9 DUP4 AND SWAP4 DUP2 ADD SWAP4 SWAP1 SWAP4 MSTORE SWAP1 DUP10 AND SWAP4 POP DUP5 SWAP3 SWAP1 SWAP2 PUSH32 0xE529AEE1DB359F51CD7BBBB4479A7ADB9CC27102AD0425321243C260FB5BBB09 SWAP2 ADD PUSH1 0x40 MLOAD DUP1 SWAP2 SUB SWAP1 LOG4 POP SWAP6 SWAP5 POP POP POP POP POP JUMP JUMPDEST PUSH1 0x0 PUSH2 0x27D DUP4 DUP4 PUSH2 0x313 JUMP JUMPDEST SWAP1 POP JUMPDEST SWAP3 SWAP2 POP POP JUMP JUMPDEST PUSH1 0x0 DUP1 PUSH2 0x293 DUP5 DUP5 PUSH2 0x313 JUMP JUMPDEST PUSH1 0x40 MLOAD ADDRESS PUSH1 0x38 DUP3 ADD MSTORE PUSH16 0x5AF43D82803E903D91602B57FD5BF3FF PUSH1 0x24 DUP3 ADD MSTORE PUSH32 0x0 PUSH1 0x14 DUP3 ADD MSTORE PUSH20 0x3D602D80600A3D3981F3363D3D373D3D3D363D73 DUP2 MSTORE PUSH1 0x58 DUP2 ADD SWAP2 SWAP1 SWAP2 MSTORE PUSH1 0x37 PUSH1 0xC DUP3 ADD KECCAK256 PUSH1 0x78 DUP3 ADD MSTORE PUSH1 0x55 PUSH1 0x43 SWAP1 SWAP2 ADD KECCAK256 SWAP5 SWAP4 POP POP POP POP JUMP JUMPDEST PUSH1 0x0 DUP3 DUP3 PUSH1 0x40 MLOAD PUSH2 0x325 SWAP3 SWAP2 SWAP1 PUSH2 0x4D9 JUMP JUMPDEST PUSH1 0x40 MLOAD DUP1 SWAP2 SUB SWAP1 KECCAK256 SWAP1 POP SWAP3 SWAP2 POP POP JUMP JUMPDEST PUSH1 0x0 PUSH23 0x3D602D80600A3D3981F3363D3D373D3D3D363D73000000 DUP4 PUSH1 0x60 SHL PUSH1 0xE8 SHR OR PUSH1 0x0 MSTORE PUSH15 0x5AF43D82803E903D91602B57FD5BF3 DUP4 PUSH1 0x78 SHL OR PUSH1 0x20 MSTORE DUP2 PUSH1 0x37 PUSH1 0x9 PUSH1 0x0 CREATE2 SWAP1 POP PUSH1 0x1 PUSH1 0x1 PUSH1 0xA0 SHL SUB DUP2 AND PUSH2 0x280 JUMPI PUSH1 0x40 MLOAD PUSH4 0x30BE1A3D PUSH1 0xE2 SHL DUP2 MSTORE PUSH1 0x4 ADD PUSH1 0x40 MLOAD DUP1 SWAP2 SUB SWAP1 REVERT JUMPDEST PUSH1 0x0 PUSH1 0x20 DUP3 DUP5 SUB SLT ISZERO PUSH2 0x3B5 JUMPI PUSH1 0x0 DUP1 REVERT JUMPDEST POP CALLDATALOAD SWAP2 SWAP1 POP JUMP JUMPDEST PUSH1 0x0 DUP1 DUP4 PUSH1 0x1F DUP5 ADD SLT PUSH2 0x3CE JUMPI PUSH1 0x0 DUP1 REVERT JUMPDEST POP DUP2 CALLDATALOAD PUSH8 0xFFFFFFFFFFFFFFFF DUP2 GT ISZERO PUSH2 0x3E6 JUMPI PUSH1 0x0 DUP1 REVERT JUMPDEST PUSH1 0x20 DUP4 ADD SWAP2 POP DUP4 PUSH1 0x20 DUP3 DUP6 ADD ADD GT ISZERO PUSH2 0x3FE JUMPI PUSH1 0x0 DUP1 REVERT JUMPDEST SWAP3 POP SWAP3 SWAP1 POP JUMP JUMPDEST DUP1 CALLDATALOAD PUSH1 0x1 PUSH1 0x1 PUSH1 0xA0 SHL SUB DUP2 AND DUP2 EQ PUSH2 0x41C JUMPI PUSH1 0x0 DUP1 REVERT JUMPDEST SWAP2 SWAP1 POP JUMP JUMPDEST PUSH1 0x0 DUP1 PUSH1 0x0 DUP1 PUSH1 0x0 PUSH1 0x80 DUP7 DUP9 SUB SLT ISZERO PUSH2 0x439 JUMPI PUSH1 0x0 DUP1 REVERT JUMPDEST DUP6 CALLDATALOAD PUSH8 0xFFFFFFFFFFFFFFFF DUP2 GT ISZERO PUSH2 0x450 JUMPI PUSH1 0x0 DUP1 REVERT JUMPDEST PUSH2 0x45C DUP9 DUP3 DUP10 ADD PUSH2 0x3BC JUMP JUMPDEST SWAP1 SWAP7 POP SWAP5 POP PUSH2 0x46F SWAP1 POP PUSH1 0x20 DUP8 ADD PUSH2 0x405 JUMP JUMPDEST SWAP3 POP PUSH2 0x47D PUSH1 0x40 DUP8 ADD PUSH2 0x405 JUMP JUMPDEST SWAP2 POP PUSH2 0x48B PUSH1 0x60 DUP8 ADD PUSH2 0x405 JUMP JUMPDEST SWAP1 POP SWAP3 SWAP6 POP SWAP3 SWAP6 SWAP1 SWAP4 POP JUMP JUMPDEST PUSH1 0x0 DUP1 PUSH1 0x20 DUP4 DUP6 SUB SLT ISZERO PUSH2 0x4AA JUMPI PUSH1 0x0 DUP1 REVERT JUMPDEST DUP3 CALLDATALOAD PUSH8 0xFFFFFFFFFFFFFFFF DUP2 GT ISZERO PUSH2 0x4C1 JUMPI PUSH1 0x0 DUP1 REVERT JUMPDEST PUSH2 0x4CD DUP6 DUP3 DUP7 ADD PUSH2 0x3BC JUMP JUMPDEST SWAP1 SWAP7 SWAP1 SWAP6 POP SWAP4 POP POP POP POP JUMP JUMPDEST DUP2 DUP4 DUP3 CALLDATACOPY PUSH1 0x0 SWAP2 ADD SWAP1 DUP2 MSTORE SWAP2 SWAP1 POP JUMP INVALID LOG2 PUSH5 0x6970667358 0x22 SLT KECCAK256 PUSH25 0xEC0EC24F8416478AEFF0DF3C2738D0C5FED8968FD743CBFA53 0xDC SWAP9 0x21 CALLDATALOAD DUP2 PUSH21 0x64736F6C6343000818003360806040523480156100 LT JUMPI PUSH1 0x0 DUP1 REVERT JUMPDEST POP PUSH2 0x67A DUP1 PUSH2 0x20 PUSH1 0x0 CODECOPY PUSH1 0x0 RETURN INVALID PUSH1 0x80 PUSH1 0x40 MSTORE CALLVALUE DUP1 ISZERO PUSH2 0x10 JUMPI PUSH1 0x0 DUP1 REVERT JUMPDEST POP PUSH1 0x4 CALLDATASIZE LT PUSH2 0x57 JUMPI PUSH1 0x0 CALLDATALOAD PUSH1 0xE0 SHR DUP1 PUSH4 0x1681A62 EQ PUSH2 0x5C JUMPI DUP1 PUSH4 0x60DC2340 EQ PUSH2 0x71 JUMPI DUP1 PUSH4 0x61D027B3 EQ PUSH2 0xA0 JUMPI DUP1 PUSH4 0x8DA5CB5B EQ PUSH2 0xB3 JUMPI DUP1 PUSH4 0xC0C53B8B EQ PUSH2 0xC6 JUMPI JUMPDEST PUSH1 0x0 DUP1 REVERT JUMPDEST PUSH2 0x6F PUSH2 0x6A CALLDATASIZE PUSH1 0x4 PUSH2 0x51A JUMP JUMPDEST PUSH2 0xD9 JUMP JUMPDEST STOP JUMPDEST PUSH1 0x2 SLOAD PUSH2 0x84 SWAP1 PUSH1 0x1 PUSH1 0x1 PUSH1 0xA0 SHL SUB AND DUP2 JUMP JUMPDEST PUSH1 0x40 MLOAD PUSH1 0x1 PUSH1 0x1 PUSH1 0xA0 SHL SUB SWAP1 SWAP2 AND DUP2 MSTORE PUSH1 0x20 ADD PUSH1 0x40 MLOAD DUP1 SWAP2 SUB SWAP1 RETURN JUMPDEST PUSH1 0x1 SLOAD PUSH2 0x84 SWAP1 PUSH1 0x1 PUSH1 0x1 PUSH1 0xA0 SHL SUB AND DUP2 JUMP JUMPDEST PUSH1 0x0 SLOAD PUSH2 0x84 SWAP1 PUSH1 0x1 PUSH1 0x1 PUSH1 0xA0 SHL SUB AND DUP2 JUMP JUMPDEST PUSH2 0x6F PUSH2 0xD4 CALLDATASIZE PUSH1 0x4 PUSH2 0x535 JUMP JUMPDEST PUSH2 0x23F JUMP JUMPDEST PUSH1 0x0 SLOAD PUSH1 0x1 PUSH1 0x1 PUSH1 0xA0 SHL SUB AND CALLER EQ PUSH2 0x104 JUMPI PUSH1 0x40 MLOAD PUSH4 0x30CD7471 PUSH1 0xE0 SHL DUP2 MSTORE PUSH1 0x4 ADD PUSH1 0x40 MLOAD DUP1 SWAP2 SUB SWAP1 REVERT JUMPDEST PUSH1 0x40 MLOAD PUSH4 0x70A08231 PUSH1 0xE0 SHL DUP2 MSTORE ADDRESS PUSH1 0x4 DUP3 ADD MSTORE DUP2 SWAP1 PUSH1 0x0 SWAP1 PUSH1 0x1 PUSH1 0x1 PUSH1 0xA0 SHL SUB DUP4 AND SWAP1 PUSH4 0x70A08231 SWAP1 PUSH1 0x24 ADD PUSH1 0x20 PUSH1 0x40 MLOAD DUP1 DUP4 SUB DUP2 DUP7 GAS STATICCALL ISZERO DUP1 ISZERO PUSH2 0x14D JUMPI RETURNDATASIZE PUSH1 0x0 DUP1 RETURNDATACOPY RETURNDATASIZE PUSH1 0x0 REVERT JUMPDEST POP POP POP POP PUSH1 0x40 MLOAD RETURNDATASIZE PUSH1 0x1F NOT PUSH1 0x1F DUP3 ADD AND DUP3 ADD DUP1 PUSH1 0x40 MSTORE POP DUP2 ADD SWAP1 PUSH2 0x171 SWAP2 SWAP1 PUSH2 0x578 JUMP JUMPDEST SWAP1 POP DUP1 PUSH1 0x0 SUB PUSH2 0x194 JUMPI PUSH1 0x40 MLOAD PUSH4 0x61655153 PUSH1 0xE1 SHL DUP2 MSTORE PUSH1 0x4 ADD PUSH1 0x40 MLOAD DUP1 SWAP2 SUB SWAP1 REVERT JUMPDEST PUSH1 0x0 PUSH1 0x64 PUSH2 0x1A3 PUSH1 0x5 DUP5 PUSH2 0x5A7 JUMP JUMPDEST PUSH2 0x1AD SWAP2 SWAP1 PUSH2 0x5BE JUMP JUMPDEST SWAP1 POP PUSH1 0x0 PUSH2 0x1BB DUP3 DUP5 PUSH2 0x5E0 JUMP JUMPDEST PUSH1 0x2 SLOAD SWAP1 SWAP2 POP PUSH2 0x1D8 SWAP1 PUSH1 0x1 PUSH1 0x1 PUSH1 0xA0 SHL SUB DUP7 DUP2 AND SWAP2 AND DUP5 PUSH2 0x304 JUMP JUMPDEST PUSH1 0x1 SLOAD PUSH2 0x1F2 SWAP1 PUSH1 0x1 PUSH1 0x1 PUSH1 0xA0 SHL SUB DUP7 DUP2 AND SWAP2 AND DUP4 PUSH2 0x304 JUMP JUMPDEST PUSH1 0x40 DUP1 MLOAD DUP5 DUP2 MSTORE PUSH1 0x20 DUP2 ADD DUP5 SWAP1 MSTORE PUSH1 0x1 PUSH1 0x1 PUSH1 0xA0 SHL SUB DUP8 AND SWAP2 CALLER SWAP2 PUSH32 0x8496DDA4D04919FEC296BE83F4D7D178DAFB7C0D3ABE1553C092F1466E8F2928 SWAP2 ADD PUSH1 0x40 MLOAD DUP1 SWAP2 SUB SWAP1 LOG3 POP POP POP POP POP JUMP JUMPDEST PUSH1 0x2 SLOAD PUSH1 0x1 PUSH1 0xA0 SHL SWAP1 DIV PUSH1 0xFF AND ISZERO PUSH2 0x269 JUMPI PUSH1 0x40 MLOAD PUSH3 0xDC149F PUSH1 0xE4 SHL DUP2 MSTORE PUSH1 0x4 ADD PUSH1 0x40 MLOAD DUP1 SWAP2 SUB SWAP1 REVERT JUMPDEST PUSH1 0x1 PUSH1 0x1 PUSH1 0xA0 SHL SUB DUP4 AND ISZERO DUP1 PUSH2 0x286 JUMPI POP PUSH1 0x1 PUSH1 0x1 PUSH1 0xA0 SHL SUB DUP3 AND ISZERO JUMPDEST DUP1 PUSH2 0x298 JUMPI POP PUSH1 0x1 PUSH1 0x1 PUSH1 0xA0 SHL SUB DUP2 AND ISZERO JUMPDEST ISZERO PUSH2 0x2B6 JUMPI PUSH1 0x40 MLOAD PUSH4 0xE6C4247B PUSH1 0xE0 SHL DUP2 MSTORE PUSH1 0x4 ADD PUSH1 0x40 MLOAD DUP1 SWAP2 SUB SWAP1 REVERT JUMPDEST PUSH1 0x0 DUP1 SLOAD PUSH1 0x1 PUSH1 0x1 PUSH1 0xA0 SHL SUB SWAP5 DUP6 AND PUSH1 0x1 PUSH1 0x1 PUSH1 0xA0 SHL SUB NOT SWAP2 DUP3 AND OR SWAP1 SWAP2 SSTORE PUSH1 0x1 DUP1 SLOAD SWAP4 DUP6 AND SWAP4 SWAP1 SWAP2 AND SWAP3 SWAP1 SWAP3 OR SWAP1 SWAP2 SSTORE PUSH1 0x2 DUP1 SLOAD PUSH1 0x1 PUSH1 0x1 PUSH1 0xA8 SHL SUB NOT AND SWAP2 SWAP1 SWAP3 AND OR PUSH1 0x1 PUSH1 0xA0 SHL OR SWAP1 SSTORE JUMP JUMPDEST PUSH1 0x40 DUP1 MLOAD PUSH1 0x1 PUSH1 0x1 PUSH1 0xA0 SHL SUB DUP5 AND PUSH1 0x24 DUP3 ADD MSTORE PUSH1 0x44 DUP1 DUP3 ADD DUP5 SWAP1 MSTORE DUP3 MLOAD DUP1 DUP4 SUB SWAP1 SWAP2 ADD DUP2 MSTORE PUSH1 0x64 SWAP1 SWAP2 ADD SWAP1 SWAP2 MSTORE PUSH1 0x20 DUP2 ADD DUP1 MLOAD PUSH1 0x1 PUSH1 0x1 PUSH1 0xE0 SHL SUB AND PUSH4 0xA9059CBB PUSH1 0xE0 SHL OR SWAP1 MSTORE PUSH2 0x356 SWAP1 DUP5 SWAP1 PUSH2 0x35B JUMP JUMPDEST POP POP POP JUMP JUMPDEST PUSH1 0x0 PUSH2 0x370 PUSH1 0x1 PUSH1 0x1 PUSH1 0xA0 SHL SUB DUP5 AND DUP4 PUSH2 0x3C3 JUMP JUMPDEST SWAP1 POP DUP1 MLOAD PUSH1 0x0 EQ ISZERO DUP1 ISZERO PUSH2 0x395 JUMPI POP DUP1 DUP1 PUSH1 0x20 ADD SWAP1 MLOAD DUP2 ADD SWAP1 PUSH2 0x393 SWAP2 SWAP1 PUSH2 0x5F3 JUMP JUMPDEST ISZERO JUMPDEST ISZERO PUSH2 0x356 JUMPI PUSH1 0x40 MLOAD PUSH4 0x5274AFE7 PUSH1 0xE0 SHL DUP2 MSTORE PUSH1 0x1 PUSH1 0x1 PUSH1 0xA0 SHL SUB DUP5 AND PUSH1 0x4 DUP3 ADD MSTORE PUSH1 0x24 ADD JUMPDEST PUSH1 0x40 MLOAD DUP1 SWAP2 SUB SWAP1 REVERT JUMPDEST PUSH1 0x60 PUSH2 0x3D1 DUP4 DUP4 PUSH1 0x0 PUSH2 0x3DA JUMP JUMPDEST SWAP1 POP JUMPDEST SWAP3 SWAP2 POP POP JUMP JUMPDEST PUSH1 0x60 DUP2 SELFBALANCE LT ISZERO PUSH2 0x3FF JUMPI PUSH1 0x40 MLOAD PUSH4 0xCD786059 PUSH1 0xE0 SHL DUP2 MSTORE ADDRESS PUSH1 0x4 DUP3 ADD MSTORE PUSH1 0x24 ADD PUSH2 0x3BA JUMP JUMPDEST PUSH1 0x0 DUP1 DUP6 PUSH1 0x1 PUSH1 0x1 PUSH1 0xA0 SHL SUB AND DUP5 DUP7 PUSH1 0x40 MLOAD PUSH2 0x41B SWAP2 SWAP1 PUSH2 0x615 JUMP JUMPDEST PUSH1 0x0 PUSH1 0x40 MLOAD DUP1 DUP4 SUB DUP2 DUP6 DUP8 GAS CALL SWAP3 POP POP POP RETURNDATASIZE DUP1 PUSH1 0x0 DUP2 EQ PUSH2 0x458 JUMPI PUSH1 0x40 MLOAD SWAP2 POP PUSH1 0x1F NOT PUSH1 0x3F RETURNDATASIZE ADD AND DUP3 ADD PUSH1 0x40 MSTORE RETURNDATASIZE DUP3 MSTORE RETURNDATASIZE PUSH1 0x0 PUSH1 0x20 DUP5 ADD RETURNDATACOPY PUSH2 0x45D JUMP JUMPDEST PUSH1 0x60 SWAP2 POP JUMPDEST POP SWAP2 POP SWAP2 POP PUSH2 0x46D DUP7 DUP4 DUP4 PUSH2 0x479 JUMP JUMPDEST SWAP3 POP POP POP JUMPDEST SWAP4 SWAP3 POP POP POP JUMP JUMPDEST PUSH1 0x60 DUP3 PUSH2 0x48E JUMPI PUSH2 0x489 DUP3 PUSH2 0x4D5 JUMP JUMPDEST PUSH2 0x472 JUMP JUMPDEST DUP2 MLOAD ISZERO DUP1 ISZERO PUSH2 0x4A5 JUMPI POP PUSH1 0x1 PUSH1 0x1 PUSH1 0xA0 SHL SUB DUP5 AND EXTCODESIZE ISZERO JUMPDEST ISZERO PUSH2 0x4CE JUMPI PUSH1 0x40 MLOAD PUSH4 0x9996B315 PUSH1 0xE0 SHL DUP2 MSTORE PUSH1 0x1 PUSH1 0x1 PUSH1 0xA0 SHL SUB DUP6 AND PUSH1 0x4 DUP3 ADD MSTORE PUSH1 0x24 ADD PUSH2 0x3BA JUMP JUMPDEST POP DUP1 PUSH2 0x472 JUMP JUMPDEST DUP1 MLOAD ISZERO PUSH2 0x4E5 JUMPI DUP1 MLOAD DUP1 DUP3 PUSH1 0x20 ADD REVERT JUMPDEST PUSH1 0x40 MLOAD PUSH4 0xA12F521 PUSH1 0xE1 SHL DUP2 MSTORE PUSH1 0x4 ADD PUSH1 0x40 MLOAD DUP1 SWAP2 SUB SWAP1 REVERT JUMPDEST DUP1 CALLDATALOAD PUSH1 0x1 PUSH1 0x1 PUSH1 0xA0 SHL SUB DUP2 AND DUP2 EQ PUSH2 0x515 JUMPI PUSH1 0x0 DUP1 REVERT JUMPDEST SWAP2 SWAP1 POP JUMP JUMPDEST PUSH1 0x0 PUSH1 0x20 DUP3 DUP5 SUB SLT ISZERO PUSH2 0x52C JUMPI PUSH1 0x0 DUP1 REVERT JUMPDEST PUSH2 0x3D1 DUP3 PUSH2 0x4FE JUMP JUMPDEST PUSH1 0x0 DUP1 PUSH1 0x0 PUSH1 0x60 DUP5 DUP7 SUB SLT ISZERO PUSH2 0x54A JUMPI PUSH1 0x0 DUP1 REVERT JUMPDEST PUSH2 0x553 DUP5 PUSH2 0x4FE JUMP JUMPDEST SWAP3 POP PUSH2 0x561 PUSH1 0x20 DUP6 ADD PUSH2 0x4FE JUMP JUMPDEST SWAP2 POP PUSH2 0x56F PUSH1 0x40 DUP6 ADD PUSH2 0x4FE JUMP JUMPDEST SWAP1 POP SWAP3 POP SWAP3 POP SWAP3 JUMP JUMPDEST PUSH1 0x0 PUSH1 0x20 DUP3 DUP5 SUB SLT ISZERO PUSH2 0x58A JUMPI PUSH1 0x0 DUP1 REVERT JUMPDEST POP MLOAD SWAP2 SWAP1 POP JUMP JUMPDEST PUSH4 0x4E487B71 PUSH1 0xE0 SHL PUSH1 0x0 MSTORE PUSH1 0x11 PUSH1 0x4 MSTORE PUSH1 0x24 PUSH1 0x0 REVERT JUMPDEST DUP1 DUP3 MUL DUP2 ISZERO DUP3 DUP3 DIV DUP5 EQ OR PUSH2 0x3D4 JUMPI PUSH2 0x3D4 PUSH2 0x591 JUMP JUMPDEST PUSH1 0x0 DUP3 PUSH2 0x5DB JUMPI PUSH4 0x4E487B71 PUSH1 0xE0 SHL PUSH1 0x0 MSTORE PUSH1 0x12 PUSH1 0x4 MSTORE PUSH1 0x24 PUSH1 0x0 REVERT JUMPDEST POP DIV SWAP1 JUMP JUMPDEST DUP2 DUP2 SUB DUP2 DUP2 GT ISZERO PUSH2 0x3D4 JUMPI PUSH2 0x3D4 PUSH2 0x591 JUMP JUMPDEST PUSH1 0x0 PUSH1 0x20 DUP3 DUP5 SUB SLT ISZERO PUSH2 0x605 JUMPI PUSH1 0x0 DUP1 REVERT JUMPDEST DUP2 MLOAD DUP1 ISZERO ISZERO DUP2 EQ PUSH2 0x472 JUMPI PUSH1 0x0 DUP1 REVERT JUMPDEST PUSH1 0x0 DUP3 MLOAD PUSH1 0x0 JUMPDEST DUP2 DUP2 LT ISZERO PUSH2 0x636 JUMPI PUSH1 0x20 DUP2 DUP7 ADD DUP2 ADD MLOAD DUP6 DUP4 ADD MSTORE ADD PUSH2 0x61C JUMP JUMPDEST POP PUSH1 0x0 SWAP3 ADD SWAP2 DUP3 MSTORE POP SWAP2 SWAP1 POP JUMP INVALID LOG2 PUSH5 0x6970667358 0x22 SLT KECCAK256 EQ COINBASE 0xE7 0xB6 PUSH22 0x415A3C018FAC26FC890455EF5A329DFB4FE939CDD768 SIGNEXTEND 0xF MSTORE8 RETURN SLT PUSH5 0x736F6C6343 STOP ADDMOD XOR STOP CALLER "},"methodIdentifiers":{"deployVault(string,address,address,address)":"bd8a0ceb","getPredicted(string)":"e3699226","getSalt(string)":"d66ee75a","implementation()":"5c60da1b","vaultForSalt(bytes32)":"316d06f0"}}}}}