{
  "_format": "hh-sol-artifact-1",
  "contractName": "Vault",
  "sourceName": "contracts/Vault.sol",
  "abi": [
    {
      "inputs": [
        {
          "internalType": "address",
          "name": "target",
          "type": "address"
        }
      ],
      "name": "AddressEmptyCode",
      "type": "error"
    },
    {
      "inputs": [
        {
          "internalType": "address",
          "name": "account",
          "type": "address"
        }
      ],
      "name": "AddressInsufficientBalance",
      "type": "error"
    },
    {
      "inputs": [],
      "name": "AlreadyInitialized",
      "type": "error"
    },
    {
      "inputs": [],
      "name": "FailedInnerCall",
      "type": "error"
    },
    {
      "inputs": [],
      "name": "InsufficientBalance",
      "type": "error"
    },
    {
      "inputs": [],
      "name": "InvalidAddress",
      "type": "error"
    },
    {
      "inputs": [],
      "name": "InvalidFee",
      "type": "error"
    },
    {
      "inputs": [],
      "name": "NoPayout",
      "type": "error"
    },
    {
      "inputs": [],
      "name": "NotOwner",
      "type": "error"
    },
    {
      "inputs": [
        {
          "internalType": "address",
          "name": "token",
          "type": "address"
        }
      ],
      "name": "SafeERC20FailedOperation",
      "type": "error"
    },
    {
      "anonymous": false,
      "inputs": [
        {
          "indexed": true,
          "internalType": "address",
          "name": "caller",
          "type": "address"
        },
        {
          "indexed": true,
          "internalType": "address",
          "name": "token",
          "type": "address"
        },
        {
          "indexed": false,
          "internalType": "uint256",
          "name": "amount",
          "type": "uint256"
        },
        {
          "indexed": false,
          "internalType": "uint256",
          "name": "feeAmount",
          "type": "uint256"
        }
      ],
      "name": "Swept",
      "type": "event"
    },
    {
      "inputs": [],
      "name": "feeAmount",
      "outputs": [
        {
          "internalType": "uint256",
          "name": "",
          "type": "uint256"
        }
      ],
      "stateMutability": "view",
      "type": "function"
    },
    {
      "inputs": [],
      "name": "feeTreasury",
      "outputs": [
        {
          "internalType": "address",
          "name": "",
          "type": "address"
        }
      ],
      "stateMutability": "view",
      "type": "function"
    },
    {
      "inputs": [
        {
          "internalType": "address",
          "name": "owner_",
          "type": "address"
        },
        {
          "internalType": "address",
          "name": "treasury_",
          "type": "address"
        },
        {
          "internalType": "address",
          "name": "feeTreasury_",
          "type": "address"
        },
        {
          "internalType": "uint256",
          "name": "feeAmount_",
          "type": "uint256"
        }
      ],
      "name": "initialize",
      "outputs": [],
      "stateMutability": "nonpayable",
      "type": "function"
    },
    {
      "inputs": [],
      "name": "owner",
      "outputs": [
        {
          "internalType": "address",
          "name": "",
          "type": "address"
        }
      ],
      "stateMutability": "view",
      "type": "function"
    },
    {
      "inputs": [
        {
          "internalType": "address",
          "name": "token",
          "type": "address"
        }
      ],
      "name": "sweep",
      "outputs": [],
      "stateMutability": "nonpayable",
      "type": "function"
    },
    {
      "inputs": [],
      "name": "treasury",
      "outputs": [
        {
          "internalType": "address",
          "name": "",
          "type": "address"
        }
      ],
      "stateMutability": "view",
      "type": "function"
    }
  ],
  "bytecode": "0x608060405234801561001057600080fd5b5061068e806100206000396000f3fe608060405234801561001057600080fd5b50600436106100625760003560e01c806301681a621461006757806360dc23401461007c57806361d027b3146100ac57806369e15404146100bf5780638da5cb5b146100d6578063cf756fdf146100e9575b600080fd5b61007a610075366004610567565b6100fc565b005b60025461008f906001600160a01b031681565b6040516001600160a01b0390911681526020015b60405180910390f35b60015461008f906001600160a01b031681565b6100c860035481565b6040519081526020016100a3565b60005461008f906001600160a01b031681565b61007a6100f7366004610582565b61026b565b6000546001600160a01b03163314610127576040516330cd747160e01b815260040160405180910390fd5b6040516370a0823160e01b815230600482015281906000906001600160a01b038316906370a0823190602401602060405180830381865afa158015610170573d6000803e3d6000fd5b505050506040513d601f19601f8201168201806040525081019061019491906105cd565b600354909150808210156101bb57604051631e9acf1760e31b815260040160405180910390fd5b60006101c782846105e6565b9050806000036101ea5760405163439ece7760e01b815260040160405180910390fd5b600254610204906001600160a01b03868116911684610351565b60015461021e906001600160a01b03868116911683610351565b60408051848152602081018490526001600160a01b0387169133917f8496dda4d04919fec296be83f4d7d178dafb7c0d3abe1553c092f1466e8f2928910160405180910390a35050505050565b60045460ff161561028e5760405162dc149f60e41b815260040160405180910390fd5b6001600160a01b03841615806102ab57506001600160a01b038316155b806102bd57506001600160a01b038216155b156102db5760405163e6c4247b60e01b815260040160405180910390fd5b806000036102fc576040516358d620b360e01b815260040160405180910390fd5b600080546001600160a01b039586166001600160a01b0319918216179091556001805494861694821694909417845560028054939095169216919091179092556003919091556004805460ff19169091179055565b604080516001600160a01b038416602482015260448082018490528251808303909101815260649091019091526020810180516001600160e01b031663a9059cbb60e01b1790526103a39084906103a8565b505050565b60006103bd6001600160a01b03841683610410565b905080516000141580156103e25750808060200190518101906103e09190610607565b155b156103a357604051635274afe760e01b81526001600160a01b03841660048201526024015b60405180910390fd5b606061041e83836000610427565b90505b92915050565b60608147101561044c5760405163cd78605960e01b8152306004820152602401610407565b600080856001600160a01b031684866040516104689190610629565b60006040518083038185875af1925050503d80600081146104a5576040519150601f19603f3d011682016040523d82523d6000602084013e6104aa565b606091505b50915091506104ba8683836104c6565b925050505b9392505050565b6060826104db576104d682610522565b6104bf565b81511580156104f257506001600160a01b0384163b155b1561051b57604051639996b31560e01b81526001600160a01b0385166004820152602401610407565b50806104bf565b8051156105325780518082602001fd5b604051630a12f52160e11b815260040160405180910390fd5b80356001600160a01b038116811461056257600080fd5b919050565b60006020828403121561057957600080fd5b61041e8261054b565b6000806000806080858703121561059857600080fd5b6105a18561054b565b93506105af6020860161054b565b92506105bd6040860161054b565b9396929550929360600135925050565b6000602082840312156105df57600080fd5b5051919050565b8181038181111561042157634e487b7160e01b600052601160045260246000fd5b60006020828403121561061957600080fd5b815180151581146104bf57600080fd5b6000825160005b8181101561064a5760208186018101518583015201610630565b50600092019182525091905056fea2646970667358221220d4cee2b84c958e13f6158795816846ee5f8f0bee145f825fb8c4d7f2dd7c0b7c64736f6c63430008180033",
  "linkReferences": {},
  "deployedLinkReferences": {}
}