{
  "_format": "hh-sol-artifact-1",
  "contractName": "VaultFactory",
  "sourceName": "contracts/VaultFactory.sol",
  "abi": [
    {
      "inputs": [
        {
          "internalType": "uint256",
          "name": "feeAmount_",
          "type": "uint256"
        }
      ],
      "stateMutability": "nonpayable",
      "type": "constructor"
    },
    {
      "inputs": [],
      "name": "ERC1167FailedCreateClone",
      "type": "error"
    },
    {
      "inputs": [],
      "name": "InvalidFee",
      "type": "error"
    },
    {
      "inputs": [
        {
          "internalType": "bytes32",
          "name": "salt",
          "type": "bytes32"
        }
      ],
      "name": "VaultAlreadyDeployed",
      "type": "error"
    },
    {
      "anonymous": false,
      "inputs": [
        {
          "indexed": true,
          "internalType": "address",
          "name": "vault",
          "type": "address"
        },
        {
          "indexed": true,
          "internalType": "bytes32",
          "name": "salt",
          "type": "bytes32"
        },
        {
          "indexed": true,
          "internalType": "address",
          "name": "owner",
          "type": "address"
        },
        {
          "indexed": false,
          "internalType": "address",
          "name": "treasury",
          "type": "address"
        },
        {
          "indexed": false,
          "internalType": "address",
          "name": "feeTreasury",
          "type": "address"
        },
        {
          "indexed": false,
          "internalType": "uint256",
          "name": "feeAmount",
          "type": "uint256"
        }
      ],
      "name": "VaultDeployed",
      "type": "event"
    },
    {
      "inputs": [
        {
          "internalType": "string",
          "name": "orderId",
          "type": "string"
        },
        {
          "internalType": "address",
          "name": "owner",
          "type": "address"
        },
        {
          "internalType": "address",
          "name": "treasury",
          "type": "address"
        },
        {
          "internalType": "address",
          "name": "feeTreasury",
          "type": "address"
        }
      ],
      "name": "deployVault",
      "outputs": [
        {
          "internalType": "address",
          "name": "vault",
          "type": "address"
        }
      ],
      "stateMutability": "nonpayable",
      "type": "function"
    },
    {
      "inputs": [],
      "name": "feeAmount",
      "outputs": [
        {
          "internalType": "uint256",
          "name": "",
          "type": "uint256"
        }
      ],
      "stateMutability": "view",
      "type": "function"
    },
    {
      "inputs": [
        {
          "internalType": "string",
          "name": "orderId",
          "type": "string"
        }
      ],
      "name": "getPredicted",
      "outputs": [
        {
          "internalType": "address",
          "name": "",
          "type": "address"
        }
      ],
      "stateMutability": "view",
      "type": "function"
    },
    {
      "inputs": [
        {
          "internalType": "string",
          "name": "orderId",
          "type": "string"
        }
      ],
      "name": "getSalt",
      "outputs": [
        {
          "internalType": "bytes32",
          "name": "",
          "type": "bytes32"
        }
      ],
      "stateMutability": "pure",
      "type": "function"
    },
    {
      "inputs": [],
      "name": "implementation",
      "outputs": [
        {
          "internalType": "address",
          "name": "",
          "type": "address"
        }
      ],
      "stateMutability": "view",
      "type": "function"
    },
    {
      "inputs": [
        {
          "internalType": "bytes32",
          "name": "",
          "type": "bytes32"
        }
      ],
      "name": "vaultForSalt",
      "outputs": [
        {
          "internalType": "address",
          "name": "",
          "type": "address"
        }
      ],
      "stateMutability": "view",
      "type": "function"
    }
  ],
  "bytecode": "0x60c060405234801561001057600080fd5b50604051610d3f380380610d3f83398101604081905261002f9161009a565b80600003610050576040516358d620b360e01b815260040160405180910390fd5b60405161005c9061008d565b604051809103906000f080158015610078573d6000803e3d6000fd5b506001600160a01b031660805260a0526100b3565b6106ae8061069183390190565b6000602082840312156100ac57600080fd5b5051919050565b60805160a05161059f6100f26000396000818160d9015281816101e8015261028d01526000818160b2015281816101940152610334015261059f6000f3fe608060405234801561001057600080fd5b50600436106100625760003560e01c8063316d06f0146100675780635c60da1b146100ad57806369e15404146100d4578063bd8a0ceb14610109578063d66ee75a1461011c578063e36992261461012f575b600080fd5b610090610075366004610423565b6000602081905290815260409020546001600160a01b031681565b6040516001600160a01b0390911681526020015b60405180910390f35b6100907f000000000000000000000000000000000000000000000000000000000000000081565b6100fb7f000000000000000000000000000000000000000000000000000000000000000081565b6040519081526020016100a4565b6100906101173660046104a1565b610142565b6100fb61012a366004610517565b6102f1565b61009061013d366004610517565b610306565b60008061014f8787610393565b6000818152602081905260409020549091506001600160a01b03161561018f57604051638b8537db60e01b81526004810182905260240160405180910390fd5b6101b97f0000000000000000000000000000000000000000000000000000000000000000826103b5565b60405163cf756fdf60e01b81526001600160a01b038781166004830152868116602483015285811660448301527f000000000000000000000000000000000000000000000000000000000000000060648301529193509083169063cf756fdf90608401600060405180830381600087803b15801561023657600080fd5b505af115801561024a573d6000803e3d6000fd5b5050506000828152602081815260409182902080546001600160a01b0319166001600160a01b0387811691821790925583518983168152888316938101939093527f000000000000000000000000000000000000000000000000000000000000000093830193909352881692508391907f049fc10d5bdee470397294b9db5e995e4619f204261d93e2eb6ca9c170a89bb99060600160405180910390a45095945050505050565b60006102fd8383610393565b90505b92915050565b6000806103138484610393565b6040513060388201526f5af43d82803e903d91602b57fd5bf3ff60248201527f00000000000000000000000000000000000000000000000000000000000000006014820152733d602d80600a3d3981f3363d3d373d3d3d363d73815260588101919091526037600c82012060788201526055604390910120949350505050565b600082826040516103a5929190610559565b6040518091039020905092915050565b6000763d602d80600a3d3981f3363d3d373d3d3d363d730000008360601b60e81c176000526e5af43d82803e903d91602b57fd5bf38360781b1760205281603760096000f590506001600160a01b038116610300576040516330be1a3d60e21b815260040160405180910390fd5b60006020828403121561043557600080fd5b5035919050565b60008083601f84011261044e57600080fd5b50813567ffffffffffffffff81111561046657600080fd5b60208301915083602082850101111561047e57600080fd5b9250929050565b80356001600160a01b038116811461049c57600080fd5b919050565b6000806000806000608086880312156104b957600080fd5b853567ffffffffffffffff8111156104d057600080fd5b6104dc8882890161043c565b90965094506104ef905060208701610485565b92506104fd60408701610485565b915061050b60608701610485565b90509295509295909350565b6000806020838503121561052a57600080fd5b823567ffffffffffffffff81111561054157600080fd5b61054d8582860161043c565b90969095509350505050565b818382376000910190815291905056fea264697066735822122071b9b2c84bc7319446e63294e05d60475b450167d4c00c92551b214f14156df564736f6c63430008180033608060405234801561001057600080fd5b5061068e806100206000396000f3fe608060405234801561001057600080fd5b50600436106100625760003560e01c806301681a621461006757806360dc23401461007c57806361d027b3146100ac57806369e15404146100bf5780638da5cb5b146100d6578063cf756fdf146100e9575b600080fd5b61007a610075366004610567565b6100fc565b005b60025461008f906001600160a01b031681565b6040516001600160a01b0390911681526020015b60405180910390f35b60015461008f906001600160a01b031681565b6100c860035481565b6040519081526020016100a3565b60005461008f906001600160a01b031681565b61007a6100f7366004610582565b61026b565b6000546001600160a01b03163314610127576040516330cd747160e01b815260040160405180910390fd5b6040516370a0823160e01b815230600482015281906000906001600160a01b038316906370a0823190602401602060405180830381865afa158015610170573d6000803e3d6000fd5b505050506040513d601f19601f8201168201806040525081019061019491906105cd565b600354909150808210156101bb57604051631e9acf1760e31b815260040160405180910390fd5b60006101c782846105e6565b9050806000036101ea5760405163439ece7760e01b815260040160405180910390fd5b600254610204906001600160a01b03868116911684610351565b60015461021e906001600160a01b03868116911683610351565b60408051848152602081018490526001600160a01b0387169133917f8496dda4d04919fec296be83f4d7d178dafb7c0d3abe1553c092f1466e8f2928910160405180910390a35050505050565b60045460ff161561028e5760405162dc149f60e41b815260040160405180910390fd5b6001600160a01b03841615806102ab57506001600160a01b038316155b806102bd57506001600160a01b038216155b156102db5760405163e6c4247b60e01b815260040160405180910390fd5b806000036102fc576040516358d620b360e01b815260040160405180910390fd5b600080546001600160a01b039586166001600160a01b0319918216179091556001805494861694821694909417845560028054939095169216919091179092556003919091556004805460ff19169091179055565b604080516001600160a01b038416602482015260448082018490528251808303909101815260649091019091526020810180516001600160e01b031663a9059cbb60e01b1790526103a39084906103a8565b505050565b60006103bd6001600160a01b03841683610410565b905080516000141580156103e25750808060200190518101906103e09190610607565b155b156103a357604051635274afe760e01b81526001600160a01b03841660048201526024015b60405180910390fd5b606061041e83836000610427565b90505b92915050565b60608147101561044c5760405163cd78605960e01b8152306004820152602401610407565b600080856001600160a01b031684866040516104689190610629565b60006040518083038185875af1925050503d80600081146104a5576040519150601f19603f3d011682016040523d82523d6000602084013e6104aa565b606091505b50915091506104ba8683836104c6565b925050505b9392505050565b6060826104db576104d682610522565b6104bf565b81511580156104f257506001600160a01b0384163b155b1561051b57604051639996b31560e01b81526001600160a01b0385166004820152602401610407565b50806104bf565b8051156105325780518082602001fd5b604051630a12f52160e11b815260040160405180910390fd5b80356001600160a01b038116811461056257600080fd5b919050565b60006020828403121561057957600080fd5b61041e8261054b565b6000806000806080858703121561059857600080fd5b6105a18561054b565b93506105af6020860161054b565b92506105bd6040860161054b565b9396929550929360600135925050565b6000602082840312156105df57600080fd5b5051919050565b8181038181111561042157634e487b7160e01b600052601160045260246000fd5b60006020828403121561061957600080fd5b815180151581146104bf57600080fd5b6000825160005b8181101561064a5760208186018101518583015201610630565b50600092019182525091905056fea2646970667358221220d4cee2b84c958e13f6158795816846ee5f8f0bee145f825fb8c4d7f2dd7c0b7c64736f6c63430008180033",
  "linkReferences": {},
  "deployedLinkReferences": {}
}